:020000040800F2
:1000000010120020D5020008133000080B30000841
:100010000F300008591F0008793600080000000062
:10002000000000000000000000000000D9310008BE
:100030005D1F00080000000015300008DB310008DB
:10004000EF020008EF020008EF020008EF020008CC
:10005000EF020008EF020008EF020008EF020008BC
:10006000EF020008EF020008EF020008EF020008AC
:10007000EF020008EF020008EF020008EF0200089C
:10008000EF020008EF020008EF020008EF0200088C
:10009000EF020008EF020008EF020008EF0200087C
:1000A000EF020008EF020008EF020008EF0200086C
:1000B000EF020008EF020008EF020008EF0200085C
:1000C000EF020008EF020008EF020008EF0200084C
:1000D000EF02000869360008EF020008EF0200088E
:1000E000EF020008EF020008EF020008EF0200082C
:1000F000EF020008EF020008EF020008EF0200081C
:10010000EF020008EF020008EF020008EF0200080B
:10011000EF020008EF020008EF020008EF020008FB
:10012000EF020008EF020008EF020008EF020008EB
:10013000EF020008EF020008EF020008EF020008DB
:10014000EF020008EF020008EF020008EF020008CB
:10015000EF020008EF020008EF020008EF020008BB
:10016000EF020008EF020008EF020008EF020008AB
:10017000EF020008EF020008EF0200080000000094
:10018000EF020008EF02000800F002F800F092F819
:100190000AA090E8000C82448344AAF10107DA45E2
:1001A00001D100F087F8AFF2090EBAE80F0013F0A2
:1001B000010F18BFFB1A43F001031847AC490000B8
:1001C000CC490000103A24BF78C878C1FAD8520749
:1001D00024BF30C830C144BF04680C6070470000C1
:1001E0000023002400250026103A28BF78C1FBD840
:1001F000520728BF30C148BF0B6070476E2900F01E
:100200005284702900F0FF81662904F06483652917
:1002100004F06183672904F05E83612904F05D8343
:1002200003681B0A28BF41F08001692900F0708132
:10023000642900F06D81752900F06A816F2900F052
:100240004085782900F0CB81E92900F0DB84E4299E
:1002500000F0D884F52900F0D584EF2900F03D8521
:10026000F82900F0CA810368DB0928BF41F080014A
:10027000632900F05C84732900F06184E32901F0B4
:100280004581F32901F04A81002070471FB504F031
:100290001DFB01F095F904000020002104F000FB93
:1002A000401C60600020002104F0E4FAE0601FBD03
:1002B00010B510BD01F056F91146FFF7E7FF04F045
:1002C00099F901F033FA03B4FFF7F2FF03BC03F02E
:1002D000BEFA00000948804709480047FEE7FEE7EC
:1002E000FEE7FEE7FEE7FEE7FEE7FEE7FEE7FEE7E6
:1002F00004480549054A064B70470000E5310008EF
:1003000089010008100C002010120020100E00209F
:10031000100E0020704753EA020C00F069802DE9AE
:10032000F04B4FF00006002B1FBFB3FA83F503FA22
:1003300005F424FA05F65E4012BF1643B2FA82F5C0
:1003400002FA05F4C5F120051EBF22FA05FC44EAB5
:100350000C04203556EA044C4FEA144418BF641CC0
:100360004FF000084FF00009904271EB030C39D3B5
:10037000002919BFB1FA81F701FA07F6B0FA80F740
:1003800000FA07F6C7F120071EBF20FA07FC46EA6D
:100390000C062037B6FBF4FCA7EB0507103F07F06F
:1003A0001F0BCBF120060CFA0BFB2CFA06F644BF10
:1003B000B3460026202FA4BF5E464FF0000B5BEA39
:1003C000060C08BF4FF0010B19EB0B09ABFB027CCD
:1003D00048EB0608C01B06FB02CC0BFB03CC71EB01
:1003E0000C01C1E70B46024641464846BDE8F08B8A
:1003F00013B54FF000004FF00001AFF30080BDE8EF
:100400001C4070477CB51D4616460C00009001D07C
:100410002044401E074B7B442A46694601903046E3
:1004200000F05BFB05461CB10020694600F068FB4C
:1004300028467CBDF10600000FB47CB50C0009AA6B
:10044000009001D02044401E084B7B446946019037
:10045000089800F042FB05461CB10020694600F0F8
:100460004FFB28467CBC5DF814FB0000BD06000075
:1004700070B5044685690068C10601D5302600E0E4
:100480002026C00707D070BDD4E90121304690472F
:10049000206A401C20626D1EF6D570BD70B5044602
:1004A00085690078C00707D170BDD4E901212020FB
:1004B0009047206A401C20626D1EF6D570BD70B555
:1004C0000C460546012A05D02878800600D5EA6941
:1004D000002302E0012305E05B1C934202D2E05CB2
:1004E0000028F9D1A869E618C01AA861286A18443A
:1004F00028622846FFF7BCFF04E0D5E9012114F883
:10050000010B9047B442F8D32846FFF7C7FF70BDF0
:100510002DE9F0410646002410687529314616A5DC
:1005200010D000F055FA002802DA404213A507E087
:1005300031688A0701D512A502E0490704D511A543
:10054000012401E000F04DFA00210A2206F12407FF
:1005500009E0B0FBF2FCB0FBF2F302FB1C00303010
:1005600078541846491C0028F3D123462A463046C1
:10057000BDE8F04100F03EBA000000002D00000090
:100580002B00000020000000F0B40D460188090592
:1005900002D5214C7C4402E01F4C7C440E340021E7
:1005A00000F1240608E002F00F071209E75D42EAB5
:1005B00003721B097754491C52EA0307F3D10278EE
:1005C0000023120704D5702D06D009B1022311347F
:1005D0002246F0BC00F00EBA01231034F8E770B5E3
:1005E00004460D462146106800F0FBF902462946F4
:1005F0002046BDE870400023C6E7D21D22F0070365
:10060000D3E90023C0E70368126843F020030360C6
:100610000823C3610023B7E7894400002DE9F05F98
:10062000894604464FF0000ADFF874B1FB44C0F875
:1006300020A02046E1688847002874D0252806D0ED
:10064000D4E901219047206A401C2062F1E700268E
:100650005F462046E16888472028054607DB312DA4
:1006600005D2781910F8200C08B10643F1E7B0075D
:1006700001D526F00406C4F81CA00027C4F818A071
:100680002A2D09D0284603F0DBF838B304EB87089D
:10069000303DC8F8185019E059F8041B204604EB07
:1006A00087029161E1688847012F054618D1E0690A
:1006B000002820DA26F020061DE0D8F8180000EB0C
:1006C000800005EB40003038C8F818002046E1688B
:1006D0008847054603F0B4F80028EED1012F0AD070
:1006E0002E2D08D12046E16888477F1C0546022F41
:1006F00046F02006C4DBA069002803DA404246F039
:100700000106A061F00701D026F010066C2D0BD079
:10071000682D09D04C2D39D06A2D35D0742D35D0A7
:100720007A2D33D016E038E0E1682F46204688471E
:10073000B842054609D16C2F26D04FF48060E1689D
:10074000064320468847054604E06C2F1AD04FF434
:10075000807006430DB3A5F14100192802D8203559
:1007600046F400664A462946204626604E46FFF774
:1007700045FD80B101280BD0F61D26F0070000F1E1
:10078000080956E74020E4E78020D8E70020D6E7B4
:1007900006F104094DE7284652E7206ABDE8F09FBC
:1007A0001944000030B505460B462A4613F8014BA4
:1007B00012F8010B08B1A042F8D01CB1002802D0F9
:1007C0006D1CF1E7284630BD10B5431C02E010F85F
:1007D000011B71B18107FAD14FF0013202C88C1AA6
:1007E0008C4314EAC211F9D0C01A0A0603D0C01E05
:1007F00010BDC01A10BD0A0401D0801E10BD090230
:10080000FCD0401E10BD40EA010370B59B072ED1FD
:100810004FF00136042A2AD308C810C99D1B9D43F6
:10082000121F15EAC61517D0D8B2E1B2401A50EA25
:10083000056110D198B2A1B2401A50EA05410AD11F
:1008400023F07F4024F07F41401A50EA052102D175
:10085000180EA0EB146070BDA342DBD018BA21BA09
:10086000884201D9012070BD4FF0FF3070BD0AB938
:10087000002070BD10F8013B11F8014B63B1A34299
:100880000AD1521E08D010F8013B11F8014B1BB1E0
:10089000A34201D1521EEDD1181B70BD032A40F2B4
:1008A000308010F0030C00F0158011F8013BBCF112
:1008B000020F624498BF11F801CB00F8013B38BF2A
:1008C00011F8013BA2F1040298BF00F801CB38BF38
:1008D00000F8013B11F0030300F00A82083AC0F06F
:1008E000088051F8043B083A51F804CBA0E80810FE
:1008F000F5E7121D5CBF51F8043B40F8043BAFF331
:100900000080D20724BF11F8013B11F801CB48BF8A
:1009100011F8012B24BF00F8013B00F801CB48BFC0
:1009200000F8012B704702F0FF0343EA032242EA7A
:10093000024200F002B84FF000020429C0F0128019
:1009400010F0030C00F01B80CCF1040CBCF1020F82
:1009500018BF00F8012BA8BF20F8022BA1EB0C0157
:1009600000F00DB85FEAC17C24BF00F8012B00F84D
:10097000012B48BF00F8012B70474FF0000200B573
:10098000134694469646203922BFA0E80C50A0E8B2
:100990000C50B1F12001BFF4F7AF090728BFA0E860
:1009A0000C5048BF0CC05DF804EB890028BF40F82C
:1009B000042B08BF704748BF20F8022B11F0804F6E
:1009C00018BF00F8012B7047704770477047704799
:1009D00009684A0501D540B27047C905FCD500B287
:1009E000704709684A0501D5C0B27047C905FCD5F2
:1009F00080B270472DE9F0470D469946924604466D
:100A000000F124080168880604D5E06921F010018E
:100A1000216000E00120A84201DD471B00E0002723
:100A2000A1697A1902EB0900081AA0612078C006B2
:100A300002D42046FFF71CFD002608E0D4E901217E
:100A40001AF806009047206A401C761C20624E452A
:100A5000F4DB2078C0060AD52046FFF709FD06E042
:100A6000D4E9012130209047206A401C2062381EC2
:100A7000A7F10107F4DC07E0D4E9012118F805002B
:100A80009047206A401C2062281EA5F10105F3DC76
:100A90002046FFF703FD2078000602D50220BDE8BE
:100AA000F0870120FBE711680268006A530501D551
:100AB00008700AE0D30501D5088006E0130603D5C7
:100AC000C217C1E9000200E0086001207047000081
:100AD00001694A1C02610878704700B58FB0CDE902
:100AE00001310021059105497944CDE903101146F2
:100AF0006846FFF793FD0FB000BD0000E5FFFFFF64
:100B00000A6802F8010B0A607047D1E900239A4293
:100B100002D2531C0B601070704710B5436913B1BB
:100B2000AFF3008001E0FFF7CAFC012010BD12788E
:100B300000F124010A7000224A700122EDE71168D9
:100B40004FF0FF32E9E700002DE9FF5F15468A46C6
:100B50000446DFF8AC80F8440027D8E900103E4690
:100B6000CDE9001010E03AF816106A4602A800F02D
:100B7000D9FC411C07D02178890603D5E2693918D0
:100B800091420DD80744761C2078800602D5E06992
:100B9000B84205DDAE42E6DB3AF816000028E2D1A5
:100BA000A069C01BA0612046FFF762FCD8E90010D5
:100BB000CDE90010002017E03AF818106A4602A8A4
:100BC00000F0B0FCB0F1FF3F81460BD000250DF1E5
:100BD000080B05E0D4E901211BF8050090476D1CC6
:100BE0004D45F7D308F10100B0428046E4DB206AAE
:100BF000384420622046FFF751FCBDE8FF9F00000B
:100C0000023F00002DE9F0418046D21D22F007028C
:100C10000025D2E90002F52915A614D0011E72F1B3
:100C2000000106DA0023D0EB030063EB020211A6F9
:100C300008E0D8F800108B0701D50FA602E049079D
:100C400001D50EA601251146002408F1240704E071
:100C500000F080F830323A55641C50EA0102F7D1B6
:100C60002B46324621464046BDE8F041FFF7C2BE62
:100C7000000000002D0000002B00000020000000FC
:100C800030B4002100F1240408E002F00705D20886
:100C9000303542EA4372DB086554491C52EA0305C9
:100CA000F3D10468002310A2250707D5A40600D4B9
:100CB00021B1C46901230DA2641EC46130BCFFF7D9
:100CC00099BE10B5044621461068FFF78AFE024619
:100CD0002046BDE810400023D2E7D21D22F00701D4
:100CE000D1E90023CCE70000000000003000000044
:100CF00010B5203AC0F00B80B1E81850203AA0E8B7
:100D00001850B1E81850A0E81850BFF4F5AF5FEAEA
:100D1000027C24BFB1E81850A0E8185044BF18C99D
:100D200018C0BDE810405FEA827C24BF51F8043B44
:100D300040F8043B08BF7047D20728BF31F8023B98
:100D400048BF11F8012B28BF20F8023B48BF00F82C
:100D5000012B704730B5B0F10A024FEA900E71F1E5
:100D600000034EEA817EB0EB0E0061EB91014FEA89
:100D7000101E4EEA017E10EB0E0041EB11114FEAFE
:100D8000102E4EEA016E10EB0E0041EB11214FEADE
:100D9000104E4EEA014E10EB0E0041EB114140188F
:100DA00041F100014FEAD00040EA41704FEAD10121
:100DB00010EB80054FEA810444EA907444EB01048F
:100DC0006D1944EB0404521BA3414FF0000348BFCC
:100DD0000A3200D530BD401C41F1000130BD7047E2
:100DE0002DE9FF4F0C461E464FF0FF378BB0D2E97E
:100DF0000001DDF860800A908A46C1F30A5505B902
:100E00003D46002108464FF00000BAF1000F00F403
:100E1000400005DA00EB80004FF4400101EA500089
:100E20004FEA9059B9F1010F00DDB9460A9850EA2E
:100E30004A000ED044F61050A5F2FF3545432F145A
:100E4000B8F1000F1ED07542291E1EDDC9F1000247
:100E50001CE0B8F1010F4FF0000001D0302103E099
:100E6000F24305E02154401CB042FBDB3046002237
:100E7000002121540B99C1F80880C1E900200FB06E
:100E8000BDE8F08FBD1B6D1CDEE74A4600DA694203
:100E900006A800F0D9FB06AB93E8070003AB83E894
:100EA000070050460A9900F08FFC8DE80700A0F576
:100EB00000501F3800900398002D0ADD42F21F01F8
:100EC0004A460844002303A90390684600F0F8FE50
:100ED00009E0A0F500504A461F38002303A90390FB
:100EE000684600F002FF8DE807000004000C03D004
:100EF0004FF0FF30410800E01046B8F1000F03D07A
:100F00000022009215461EE0751E05D4FFF722FF51
:100F1000303262556D1EF9D5B3460122084302D026
:100F200000227F1C04E02078302801D100227F1E9F
:100F3000002A099784D01DE0112D07DAFFF70AFF78
:100F4000303262556D1C50EA0102F5D1084302D0DF
:100F50000098C8B10EE00021681E05E0235C625CC9
:100F600063542254401E491C8142F7DBAB46A81B48
:100F7000401E0990002004F80B000B98099AC0F855
:100F80000880C0E9002B7AE711264FF0000857E7E8
:100F90002DE9F04F88460446D21D22F0070191B09A
:100FA000D1E90001CDE90A0102F015FC02460B98D7
:100FB000C00F01D02D2007E02068810701D52B202C
:100FC00002E0202101EAC000032A099001D0072A8B
:100FD00005DB03464146204600F0F6FA0BE1207897
:100FE000800601D5E06900E00620B8F1650F814672
:100FF00006D0B8F1660F18D0B8F1670F70D131E0A4
:101000000020B9F1110F009001DB112301E009F17B
:1010100001030AAA01A90CA8FFF7E2FEDDE90C70A2
:10102000002609F10105834647E001204B46009068
:101030004FF000470AAA01A90CA8FFF7D1FEDDE98D
:101040000DB00C995D46002610B909F101000D188C
:10105000B9EB050003D4C0F1FF3609F10105A5EB9A
:1010600009002BE0B9F1010F01DA4FF0010900206E
:10107000B9F1110F0090484601DD112300E003464D
:101080000AAA01A90CA8FFF7ABFEDDE90C704D46DA
:1010900000268346207800070AD4AB4500DA5D4677
:1010A00001A8012D04DD411911F8011C302907D0D8
:1010B0004F4502DA17F1040F04DA012082460FE0EF
:1010C0006D1EEEE7002F02DCED1B3E4403E0781CB2
:1010D000A84200DD7D1CB81B00F1010A4FF000475B
:1010E0002078000703D4AA4501DB4FF0FF3A002126
:1010F000B7F1004F0DF143088DF8431024D00220C2
:101100002B23002F01DA7F422D230A21021EA0F19A
:10111000010000DC5FB197FBF1FC97FBF1F201FBF2
:101120001C7C17460CF1300C08F801CDEEE7A8F155
:10113000010003702188090501D5452100E06521E2
:10114000A0F1010800F8011C09980FA9A1EB0807FC
:10115000FF1D00B10120411901EBEA70A16938447B
:10116000081A401EA0612078C00602D42046FFF76E
:101170007FF9099828B1D4E901219047206A401CE1
:1011800020622078C00622D52046FFF771F91EE0C4
:10119000002E04DBB34502DD01A8805D00E03020B5
:1011A000D4E901219047206A401C2062761CAAF1F4
:1011B00001005FEA000A0AD100F002FAC068016883
:1011C000405CD4E901219047206A401C2062281E1F
:1011D000A5F10105DCDC07E0D4E9012118F8010BD9
:1011E0009047206A401C2062381EA7F10107F3DCFB
:1011F0002046FFF753F9032011B041E62DE9F04FE7
:1012000004460D46D21D22F0070089B0D0E90097B0
:101210004846394602F0DFFA0246F80F01D02D2386
:1012200007E02068810701D52B2302E0202101EA95
:10123000C0038DF820300BB1012000E00020032A0C
:10124000824601D0072A04DB2946204600F0BCF97B
:101250003FE12078800601D40D2500E0E569C7F361
:101260000A560D2D49DA00214FEA175B08464FF068
:101270000000002F00F4400007DA00EB80004FF47C
:10128000400100EBD07001EA60008115012901DD09
:101290004FF0FF3100224FEA850CBCF1180F06D346
:1012A0001346ACF118004FF08052C24003E04FF4F7
:1012B000801323FA0CF30CF10C0CBCF1200F04D3B7
:1012C000ACF1200C09FA0CF001E007FA0CF000294F
:1012D0004FF0004801DD18B90FE00ED140450CD3A6
:1012E00019EB02095F4121B9404502D19F4329EA28
:1012F0000209BBEB175F00D0761C2088000502D5E1
:101300007B48784402E07A487844193808AA3023A8
:1013100002F80A30037C0AF10101002E0AF1020AE8
:1013200053546A4602DC4FF0300101E04FF03101C6
:101330004FF001088DF8001002D0A6F2FF3603E04E
:1013400059EA470100D06B4E002D02DC21780907D5
:1013500004D54FF002082E218DF80110C44600215B
:101360000BE0C7F303433F01C35C491C6D1E02F849
:101370000830052908F1010801DA002DF1DC00210F
:101380000CE000EB1973491C1B786D1E082902F84C
:1013900008304FEA091908F1010801DA002DF0DCE4
:1013A00021688B0602D516E0A8F10108E04505DDAD
:1013B00002EB080313F8013C302BF5D0B8F1000F15
:1013C00009DD02EB080313F8013C2E2B03D10907BA
:1013D00001D4A8F10108002D05DD3E2102F8081016
:1013E0006D1E08F10108407C002E02F8080008F18B
:1013F000010804DA2D20764202F8080002E02B20D2
:1014000002F808000A214FF47A70864208F10108B8
:101410000BDB96FBF0F3303302F8083096FBF0F369
:1014200008F1010800FB136601E0642E0CDB642068
:1014300096FBF0F3303302F8083096FBF0F308F136
:10144000010800FB136601E00A2E06DB96FBF1F0B3
:10145000303002F8080008F1010896FBF1F001FBBA
:101460001060303002F80800A16908F1010808EBAB
:10147000050202EB0A00081AA0612078C00602D417
:101480002046FEF7F5FF216A08AE01EB0A00206254
:1014900004E0D4E9012116F8010B9047BAF1010AE2
:1014A000F7D22078C00602D52046FEF7E1FF6E464F
:1014B00009E016F8010B3E280FD0D4E9012190472E
:1014C000206A401C2062B8F10108F2D22046FEF7E3
:1014D000E5FF09B00320BDE8F08F206A28442062B0
:1014E00003E0D4E90121302090476D1EEBD3F8E7EB
:1014F0007137000002FCFFFF10B5436913B1AFF371
:10150000008001E0FFF720FB012010BD128800F1F0
:10151000240182840022C2840122EDE711684FF089
:10152000FF32E9E770B516460C46054600F040F874
:10153000036893F80101012806D0FF2C0FD8185D2D
:1015400068B101202C7070BDD3F8070132462146E6
:1015500003F2071303442846BDE8704018474FF0D4
:10156000FF3070BD754600F0EBF8AE4605006946E9
:10157000534620F00700854618B020B5FEF7B8FEA8
:10158000BDE820404FF000064FF000074FF0000884
:101590004FF0000B21F00701AC46ACE8C009ACE805
:1015A000C009ACE8C009ACE8C0098D46704700002E
:1015B00010B500F005F8001D10BD00BFE5320000B9
:1015C00000487047CC0B00202DE9F0411F4604462F
:1015D00003260168072A01F4006004DB08B116A5A0
:1015E00005E016A503E008B115A500E015A521F05A
:1015F00010002060A069C01EA0610FB1401EA06154
:101600002046FEF735FF4FB1D4E901213846904717
:10161000206A401C2062C01C206206E0206AFAE7B3
:10162000D4E9012115F8010B9047761EF8D2204627
:10163000FEF734FFBDE8F0814E414E006E616E0052
:10164000494E4600696E66002DE9F0478146164610
:101650008AB0354878440DC88DE80D00324878448A
:10166000801C03AC0DC884E80D0041F69B30084493
:10167000372190FBF1F290FBF1F5A5F1800501FB1C
:1016800012041B3C02D56442012000E00020DFF878
:1016900098A080460027FA44AAF1BE0A0EE0E007AF
:1016A0000AD03246684607EB470101230AEB810165
:1016B00000F01BFB8DE8070064107F1C002CEED1AE
:1016C000194F7F44AE3F19E0E80715D007EB04102F
:1016D0000DF1180A90E80E008AE80E00C068F0428A
:1016E00001D1981908903246012306A903A800F0F9
:1016F000FCFA03AB83E807006D10641C002DE3D1F6
:101700004FF0010332466946B8F1000F03A802D03A
:1017100000F0D6FA01E000F0E8FAC9E90001C9F8E2
:1017200008200AB0BDE8F087B034000010B50446C8
:10173000AFF300802046BDE81040FEF7C4BD0000B6
:1017400000487047AC0B00204FF0013C50F8042BD0
:1017500051F8043B9A4221D1A2EB0C03934313EAC4
:10176000CC1317D150F8042B51F8043B9A4215D1F1
:10177000A2EB0C03934313EACC130BD150F8042BC8
:1017800051F8043B9A4209D1A2EB0C03934313EAAC
:10179000CC13DBD04FF00000704700BFD01A01BA65
:1017A000B1FA81F101F0180122FA01F0CB40C1F148
:1017B0002001DBB2C0B2C01A2CFA01F3D11A914356
:1017C00011EAC311E6D170475FEA400C08BF91F0FF
:1017D000000F4FEA8C234FEAC12243EA51514FEAEE
:1017E0001C5018BF00F5F0404FEA300018BF41F020
:1017F00000415FEA6C5C00F02980BCF1FF3F08BF4C
:1018000040F080407047130C06BF12044FF0100CDC
:101810004FF0000C130E04BF12020CF1080C130F52
:1018200004BF12010CF1040C930F04BF92000CF1E1
:10183000020CD30F04BF52000CF1010C11464FF003
:101840000002A0F11F00A0EB0C00704711F0004F48
:1018500008BF704731F000413FF4D5AF0B0C06BF15
:1018600009044FF0100C4FF0000C0B0E04BF0902DE
:101870000CF1080C0B0F04BF09010CF1040C8B0FC9
:1018800004BF89000CF1020CCB0F04BF49000CF11E
:10189000010CCCF12003A0EB0C0022FA03F302FAB6
:1018A0000CF241EA030100F10100704720F07F4C87
:1018B00080EA030023F07F47ACEB070303F57C537A
:1018C00000F0004003F1FF032DE980494FEA154B7A
:1018D00009B44FEA144325EA0B4E24EA03480FF2F9
:1018E000042606EB132749083E785FEA320203FB21
:1018F0000667C7F5000707FB06F64FEA54374FEABD
:10190000D64606F1020607FB066CCCF1005C4FEAF6
:101910001C472CEA074C07FB06F40CFB06F504EB0E
:1019200015464FEA961634BF00204FF000404FEAAC
:10193000D13706FB07FC4FEA1C4C0CFB0BF7D21B04
:1019400003FB0CF761EB07010CFB0EF7B0EB074054
:1019500072EB17420CFB08F734BFA2EB0742B2EB65
:10196000074261EB17414FEA0C444FEA910706FB2F
:1019700007FC4FEA1C4C0CFB0BF7B0EBC74072EBBB
:10198000573203FB0CF734BFA2EBC742B2EBC7429E
:1019900061EB57310CFB0EF7B0EBC70072EB5772DF
:1019A0000CFB08F734BFA2EBC702B2EBC70261EB36
:1019B0005771039F4FEA816141EA921104EBCC0415
:1019C0004FEAD1374FEA826206FB07FC42EA9012E7
:1019D0004FEA80604FEA1C4C0CFB0BF7D21B03FB59
:1019E0000CF761EB07010CFB0EF7B0EB074072EB55
:1019F00017420CFB08F734BFA2EB0742B2EB0742D9
:101A000061EB17414FEA8C554FEA910704EB9C2498
:101A100006FB07FC4FEA1C4C0CFB0BF7B0EBC74076
:101A200072EB573203FB0CF734BFA2EBC742B2EBA9
:101A3000C74261EB57310CFB0EF7B0EBC70072EBFE
:101A400057720CFB08F734BFA2EBC702B2EBC70218
:101A500061EB577115EB4C254FEA816141EA921118
:101A60004FEA82624FEAD13742EA901206FB07FC46
:101A700044F100044FEA80604FEA1C4C0CFB0BF76A
:101A8000D21B03FB0CF761EB07010CFB0EF7B0EB6D
:101A9000074072EB17420CFB08F734BFA2EB07427A
:101AA000B2EB074261EB174115EB1C154FEA813190
:101AB00041EA92414FEA823242EA90424FEA803054
:101AC0004FEA0C7644F1000448EA03434EEA0B481F
:101AD0004FF0000EB2EB080C71EB030724BF624617
:101AE00039464EEB0E0E4FF0000B001852414941A3
:101AF0004BEB0B0BB2EB080C71EB03077BF1000B0C
:101B000024BF624639464EEB0E0E4FF0000B001814
:101B1000524149414BEB0B0BB2EB080C71EB030745
:101B20007BF1000B24BF624639464EEB0E0E51EAA4
:101B3000020718BF46F0010616EB0E7655F10002BB
:101B400054F1000103D5BDE88901BDE80088BDE876
:101B50008901BDE80048B619524141EB0101A3F1EA
:101B60000103704780807F7E7D7C7B7A79787776F1
:101B700076757473727171706F6E6E6D6C6C6B6A6A
:101B80006A69686867666665646463636261616008
:101B9000605F5F5E5E5D5D5C5C5B5B5A5A59595885
:101BA00058575756565555555454535352525251EF
:101BB000515050504F4F4F4E4E4D4D4D4C4C4C4B45
:101BC0004B4B4A4A4A49494948484847474747468C
:101BD00046464545454444444443434343424242C8
:101BE00042414141002B9C4630D477002BD01CB59C
:101BF0004FEA370703B44FF010004FF01001BAF16D
:101C0000000F06D0BCF1000FDCBF40F0080040F030
:101C100008014FF000000FBCBDE810400BF1010BB4
:101C2000BBF1010F08BF5FEA170722BF12F10102E3
:101C300011F101014FF0004143F1000300F00040B9
:101C400043EA00007047F9D35708D0E746EA064652
:101C500013F1400F4FEA16461FDD13F1200FDFBFCF
:101C600016430A46002120335B42BED0C3F1200751
:101C700046EA064602FA07F74FEA164646EA07061C
:101C8000C3F1200722FA03F201FA07F721FA03F160
:101C90004FF0000342EA0702A7E746EA020646EAD7
:101CA00006464FEA164646EA0106BCBF46EA064625
:101CB000360C4FF000034FF000024FF0000194E7A4
:101CC0002DE9804C9A46934670B491E8380007C8D5
:101CD00031EA400C48BF34EA430C03D5FFF7E6FD78
:101CE000FFF780FFF0BCBDE8008C2DE9804C9A46E0
:101CF000934670B491E8380007C810F0804F08BFD1
:101D000013F0804F03D100F005F8FFF76BFFF0BC34
:101D1000BDE8008C20F07F4780EA030023F07F4C71
:101D200007EB0C03A3F57C5300F00040A3F1FE0386
:101D300092F0000F00F0B38095F0000F00F0778074
:101D40002DE901494FEA11404FEA144621EA0048C3
:101D500000FB06FC24EA064708FB06F607FB08F82A
:101D600000FB07F718EB06484CEB164C4FEA124BFA
:101D700018EB07484FEA15464CEB174022EA0B4E8A
:101D80000BFB06FC25EA06470EFB06F607FB0EFEDC
:101D90000BFB07F71EEB064E4CEB164C4FF0000604
:101DA0001EEB074E4CEB174B18EB0B0840F10000F5
:101DB00018EB0E0B58EB000840F100008F1A4FF0A3
:101DC00000013CBFC943661B14BFB5EB040C0021E6
:101DD0003CBFC943F61B4FEA17444EEA8E0E27EA72
:101DE00004454FEA1C4704FB07622CEA074C05FB3D
:101DF00007F70CFB05F604FB0CFC16EB074642EB61
:101E0000174216EB0C4642EB1C421BEB060658EB46
:101E10000202414146EA9E0601D5BDE80189B61994
:101E2000524141EB0101A3F10103BDE801894FEAF1
:101E300014454FEA114724EA054621EA074C05FB01
:101E400007F406FB07F70CFB06F105FB0CFC11EB96
:101E5000074144EB17444FEA124711EB0C4144EBA6
:101E60001C4422EA074C05FB07F206FB07F70CFBB4
:101E700006F605FB0CFC16EB074642EB174216EB89
:101E80000C4642EB1C456A1854F1000148BF7047EC
:101E9000B619524141EB0101A3F10103704795F0DE
:101EA000000F37D04FEA11424FEA144721EA0246A9
:101EB00024EA074C02FB07F106FB07F70CFB06F4CC
:101EC00002FB0CFC14EB074441EB17414FEA1547AA
:101ED00014EB0C4441EB1C4125EA074C02FB07F5CF
:101EE00006FB07F70CFB06F602FB0CFC16EB07469D
:101EF00045EB174516EB0C4645EB1C42121951F108
:101F0000000148BF7047B619524141EB0101A3F1EE
:101F1000010370474FEA14454FEA114724EA05468A
:101F200021EA074C05FB07F106FB07F70CFB06F25D
:101F30004FF0000605FB0CFC12EB074241EB17418A
:101F400012EB0C4251EB1C4148BF7047921841EB19
:101F50000101A3F10103704700BFFEE7704770B5B0
:101F60000446A56D00F06CF9064694F83500022889
:101F700008D08020606500BF002084F8340000BFD6
:101F8000012070BD2068006820F0160021680860FC
:101F90002068406920F0800021684861206C08B901
:101FA000A06C28B12068006820F008002168086053
:101FB0002068006820F001002168086010E000F04F
:101FC0003FF9801B05280BD920206065032084F889
:101FD000350000BF002084F8340000BF0320D0E7A4
:101FE0002068006800F001000028E8D194F85C1037
:101FF0003F208840A860012084F8350000BF002001
:1020000084F8340000BF00BFBBE7014691F83500FB
:10201000022803D08020486501207047052081F800
:1020200035000868006820F001000A681060002090
:10203000F3E70000F8B502460B4600250024002017
:102040000021D6E0012606FA01F51E6806EA05041D
:10205000AC4274D11E7906F00306012E04D01E791D
:1020600006F00306022E13D190684F000326BE40EF
:10207000B0434F00DE68BE40304390605068012698
:102080008E40B0431E79C6F300168E403043506038
:102090001E7906F00306032E09D0D0684F000326F0
:1020A000BE40B0434F009E68BE403043D0601E79B2
:1020B00006F00306022E13D1CF0802F1200656F8CF
:1020C00027004E07F70E0F26BE40B0434F07FF0E06
:1020D0001E69BE403043CF0802F1200646F82700B3
:1020E00010684F000326BE40B0431E7906F0030679
:1020F0004F00BE40304310605E6806F44036002E4C
:1021000076D000BF002600963C4E366846F48046E6
:102110003A4F3E603E46366806F48046009600BF61
:1021200000BF374E8F0856F827008E07370F0F264F
:10213000BE40B043334EB24202D1002624E057E005
:10214000314EB24201D101261EE0304EB24201D1E1
:10215000022619E02E4EB24201D1032614E02D4E84
:10216000B24201D104260FE02B4EB24201D1052626
:102170000AE02A4EB24201D1062605E0284EB242BC
:1021800001D1072600E008268F073F0FBE403043ED
:102190001B4E8F0846F82700224E3068A0435E6829
:1021A00006F4801606B120431E4E3060361D30689E
:1021B000A0435E6806F4001606B12043194E361D92
:1021C0003060184E361F3068A0435E6806F4003653
:1021D00006B12043134E361F3060361F3068A043CF
:1021E0005E6806F4803606B120430E4E083E30602D
:1021F000491C1029FFF426AFF8BD00004438024006
:10220000083801400000024000040240000802407B
:10221000000C02400010024000140240001802406E
:10222000001C0240083C01400AB1816101E00B043E
:102230008361704701480068000C7047002004E08B
:102240000148006870470000100000200348006843
:1022500003490978084401490860704710000020CC
:102260001800002010B50D48006840F400700B49BC
:1022700008600846006840F480600860084600680E
:1022800040F480700860032000F080F80F2000F018
:1022900007F800F02BF8002010BD0000003C0240C1
:1022A00070B504460E4800784FF47A71B1FBF0F037
:1022B0000C490968B1FBF0F5284600F009FC08B1AB
:1022C000012070BD102C07D200222146501E00F0C4
:1022D0001EF80548046001E00120F2E70020F0E765
:1022E0001800002000000020140000207047014664
:1022F0000846002809DB00F01F0301229A40430929
:102300009B0003F1E023C3F8002100BF70472DE9D3
:10231000F05F80460D461646002701F075FA074625
:1023200039462A46334601F00700C0F1070ABAF1E0
:10233000040F02D94FF0040A01E0C0F1070AD146A8
:1023400000F1040ABAF1070F02D24FF0000A01E0CF
:10235000A0F1030AD4464FF0010A0AFA09FAAAF1D9
:10236000010A0AEA020A0AFA0CFA4FF0010B0BFA08
:102370000CFBABF1010B0BEA030B4AEA0B04214601
:10238000404601F049FABDE8F09F000000BF00F0B0
:102390000702064B19684FF6FF031940044B0B4325
:1023A00043EA0221014B196000BF70470CED00E0C9
:1023B0000000FA0570B504460D460CB9012070BD49
:1023C0005848006800F00700A84209D255490D702E
:1023D0000846006800F00700A84201D00120EEE79F
:1023E000207800F0020002281DD1207800F00400BF
:1023F000042805D14C48006840F4E0504A49086080
:10240000207800F00800082805D14748006840F40B
:102410006040454908604448006820F0F000A16829
:10242000084341490860207800F00100A8B36068C3
:10243000012807D13C4808380068C0F34040B8B9CB
:102440000120BCE76068022802D06068032807D139
:10245000354808380068C0F3406048B90120AEE74D
:10246000314808380068C0F3400008B90120A6E7E9
:102470002D48006820F00300616808432A4908607D
:10248000FFF7DEFE064609E0FFF7DAFE801B41F2A9
:102490008831884202D9032091E707E0224800688A
:1024A00000F00C006168B0EB810FEDD11D480068B1
:1024B00000F00700A84209D91A490D7008460068C3
:1024C00000F00700A84201D0012078E7207800F052
:1024D0000400042807D11448006820F4E050E168A3
:1024E000084311490860207800F00800082808D146
:1024F0000D48006820F46040216940EAC1000A49A3
:10250000086000F03FF808490968C1F30311074A61
:10251000515CC8400649086006480068FFF7C0FEE5
:1025200000204CE7003C024008380240E348000825
:1025300000000020140000200148006870470000DF
:102540000000002000B5FFF7F7FF04490968C1F358
:102550008221034A515CC84000BD00000838024097
:10256000F348000800B5FFF7E7FF04490968C1F325
:102570004231034A515CC84000BD000008380240A7
:10258000F34800082DE9F047002400250026A14665
:102590002548006800F00C0020B1042805D0082868
:1025A0003AD105E0DFF8849039E0DFF8849036E036
:1025B0001D48001F006800F03F041B48001F006812
:1025C00000F4800078B11A481749091F0968C1F35F
:1025D0008811A0FB01700146224600233846FDF712
:1025E0009AFE05460EE011480F49091F0968C1F31C
:1025F0008811A0FB01700146224600233846FDF7F2
:102600008AFE05460848001F0068C0F30140401CD0
:102610004600B5FBF6F902E0DFF8109000BF00BFFE
:102620004846BDE8F0870000083802400024F40066
:1026300000127A00F8B504460CB90120F8BD2078E4
:1026400000F00100002874D0F948006800F00C0088
:1026500004280DD0F648006800F00C00082813D1BB
:10266000F348001F006800F48000B0F5800F0BD124
:10267000EF4808380068C0F34040002859D060682F
:10268000002856D10120D9E700BF6068B0F5803F2F
:1026900008D1E7480838006840F48030E449083938
:1026A00008601EE06068B0F5A02F0DD1E048083842
:1026B000006840F48020DE49083908600846006858
:1026C00040F4803008600CE0D9480838006820F4F5
:1026D0008030D749083908600846006820F4802017
:1026E000086000BF606890B1FFF7AAFD054606E0EC
:1026F000FFF7A6FD401B642801D903209EE7CC48C4
:1027000008380068C0F340400028F1D011E0FFF71E
:1027100097FD054606E0FFF793FD401B642801D9AD
:1027200003208BE7C24808380068C0F34040002807
:10273000F1D1207800F0020002285FD1BC48006887
:1027400000F00C0058B1BA48006800F00C000828EE
:102750001CD1B748001F006800F48000B0B9B4482D
:1027600008380068C0F3400020B1E068012801D0BB
:10277000012063E7AE480838006820F0F8002169BE
:1027800040EAC100AA490839086037E0E06800B3B0
:102790000120A8490860FFF753FD054606E0FFF752
:1027A0004FFD401B022801D9032047E7A048083805
:1027B0000068C0F340000028F1D09D480838006848
:1027C00020F0F800216940EAC10099490839086001
:1027D00014E0002097490860FFF732FD054606E047
:1027E000FFF72EFD401B022801D9032026E7904861
:1027F00008380068C0F340000028F1D1207800F0CC
:10280000080008282CD16069A8B101208A49086015
:10281000FFF716FD054606E0FFF712FD401B0228F4
:1028200001D903200AE782486C300068C0F34000F9
:102830000028F1D014E000207F490860FFF700FD78
:10284000054606E0FFF7FCFC401B022801D90320E7
:10285000F4E677486C300068C0F340000028F1D1FE
:10286000207800F00400042870D100277048383028
:10287000006800F0805090B900BF002000906C48C4
:102880003830006840F080506949383108600846A7
:10289000006800F08050009000BF00BF012767482B
:1028A000006800F48070B0B96448006840F480703B
:1028B00062490860FFF7C4FC054606E0FFF7C0FC6C
:1028C000401B022801D90320B8E65C48006800F4E8
:1028D00080700028F2D000BFA068012808D15448B9
:1028E0006830006840F001005149683108601DE01F
:1028F000A06805280DD14E486830006840F00400FB
:102900004B49683108600846006840F001000860E3
:102910000CE047486830006820F001004449683105
:1029200008600846006820F00400086000BFA06846
:10293000A8B1FFF785FC054609E0FFF781FC401BC5
:1029400041F28831884202D9032077E626E03848F0
:1029500068300068C0F340000028EED013E0FFF7B5
:102960006FFC054608E0FFF76BFC401B41F2883125
:10297000884201D9032061E62D4868300068C0F321
:1029800040000028EFD1012F07D1294838300068D6
:1029900020F0805026493831086000BFA069002827
:1029A00045D02348006800F00C0008285DD0A069DD
:1029B000022845D100201F490866FFF741FC054663
:1029C00006E0FFF73DFC401B022801D9032035E655
:1029D000174808380068C0F340600028F1D1D4E9F6
:1029E00007010843616A40EA81110122A06AC2EB33
:1029F000500041EA00412C20005D41EA00600C4992
:102A0000091F086001200B490866FFF719FC0546FD
:102A100006E0FFF715FC401B022801D903200DE654
:102A2000034808380068C0F340600028F1D049E04E
:102A30000838024000004742800E474200700040C4
:102A4000002021490866FFF7FBFB054606E0FFF77B
:102A5000F7FB401B022801D90320EFE51B48006863
:102A6000C0F340600028F2D12CE0A069012800D119
:102A7000E4E51648001D0668A069012820D006F488
:102A80008001E06981421BD106F03F01206A81424A
:102A900016D147F6C0703040616AB0EB811F0FD18C
:102AA00006F440310122A06AC2EB5000B1EB004FA6
:102AB00006D106F070612C20005DB1EB006F01D0F3
:102AC0000120BBE50020B9E5000047420038024084
:102AD00070B504462546681EB0F1807F01D3012001
:102AE0000FE0681E4FF0E02148610F214FF0FF30EA
:102AF00000F092FE00204FF0E0218861072008617D
:102B0000002070BD704770472DE9F84F04462068DB
:102B100005682068C668206847694FF00009CA4602
:102B200005F00F09B9F1000F0AD105F0200038B106
:102B300006F0200020B1204600F0AEFBBDE8F88F83
:102B4000B9F1000F7CD007F0010018B906F49070BD
:102B5000002875D005F0010030B106F4807018B17E
:102B6000206C40F00100206405F0040030B107F053
:102B7000010018B1206C40F00200206405F0020052
:102B800030B107F0010018B1206C40F0040020645F
:102B900005F0080048B106F0200010B907F0010068
:102BA00018B1206C40F008002064206C002846D04A
:102BB00005F0200028B106F0200010B1204600F0FA
:102BC0006BFB20684069C0F3801A206C00F008009D
:102BD00010B9BAF1000F2DD0204600F017FB206885
:102BE000406900F04000402820D100BF00BF2168AC
:102BF000143151E8001F21F040002168143141E8F0
:102C00000002002AF3D100BFA06B50B17548A16B40
:102C10000865A06BFFF7F9F988B1A06B016D8847D3
:102C20000DE02046FFF76FFF09E009E02046FFF7BF
:102C30006AFF04E02046FFF766FF002020647DE77E
:102C4000206B012876D105F01000002872D006F024
:102C500010000028FAD000BF002000902068006813
:102C6000009020684068009000BF00BF2068406965
:102C700000F0400040285ED1A06B006840681FFA59
:102C800080F8B8F1000F54D0A08D404551DDA4F874
:102C90002E80A06BC069B0F5807F43D000BF00BF1D
:102CA00021680C3151E8001F21F4807021680C313B
:102CB00041E80002002AF3D100BF00BF00BF216835
:102CC000143151E8001F21F001002168143141E85E
:102CD0000002002AF3D100BF00BF00BF21681431F9
:102CE00051E8001F21F040002168143141E8000242
:102CF000002AF3D100BF202084F83E00002020638A
:102D000000BF00BF21680C3151E8001F21F0100006
:102D100021680C3141E80002002AF3D100BFA06B0A
:102D2000FFF71DF9A08DE28D801A81B22046FFF7D2
:102D3000E9FE03E740E0A08DE18D401A1FFA80F81C
:102D4000E08DC0B3B8F1000F35D000BF00BF2168DF
:102D50000C3151E8001F21F4907021680C3141E8DA
:102D60000002002AF3D100BF00BF00BF2168143168
:102D700051E8001F21F001002168143141E80002F0
:102D8000002AF3D100BF202084F83E0000202063F9
:102D900000BF00BF21680C3151E8001F21F0100076
:102DA00021680C3141E80002002AF3D100BF4146FE
:102DB0002046FFF7A7FEC1E605F0800030B106F01F
:102DC000800018B1204600F01EFCB7E605F0400078
:102DD00030B106F0400018B1204600F04DFAADE6E3
:102DE00000BFABE6F931000810B504460CB901206C
:102DF00010BDA06900B100E000BF94F83D0028B903
:102E0000002084F83C00204600F028F8242084F8B4
:102E10003D002068C06820F400502168C86020464A
:102E200000F0B6FA2068006920F49040216808613B
:102E30002068406920F02A00216848612068C06845
:102E400040F400502168C86000202064202084F8ED
:102E50003D0084F83E000020CAE7000010B586B0AF
:102E600004462E492068884255D100BF00BF00208B
:102E700000902B48006840F010002949086008467F
:102E8000006800F01000009000BF00BF00BF00BF4E
:102E900000BF0020009022481438006840F0010074
:102EA0001F49143908600846006800F001000090CE
:102EB00000BF00BF00BF00BF00BF00200090084659
:102EC000006840F0010008600846006800F001005A
:102ED000009000BF00BF00BF481501900220029083
:102EE00001200390022004900720059001A90D48BD
:102EF000FFF7A0F84FF4806001900720059001A92A
:102F00000848FFF797F82520FFF7F1F9032211464B
:102F10002520FFF7FCF906B010BD000000100140AD
:102F2000443802400000024070B504460D46164683
:102F300094F83E00202816D105B10EB9012070BDCD
:102F400000BF94F83C00012801D10220F7E70120DE
:102F500084F83C0000BF002020633246294620460A
:102F600000F02CFBEBE70220E9E7000010B5044677
:102F70002049206888423BD11F48008800F4004067
:102F800088BB1D48008800F4804070B11B48007861
:102F90000A2803D000201849088024E01648008839
:102FA00040F40040144908801DE0144800780D28C2
:102FB00006D11148008840F480400F49088012E093
:102FC0000E4800780C490988C1F30D010C4A505491
:102FD00009480088401C0849088008460088C7281E
:102FE00001DD00200880012204490648FFF79CFF0C
:102FF00010BD0000001001400C0000200E00002059
:103000006004002028050020704700BFFEE700BFD5
:10301000FEE77047704700002DE9F05F05460F4658
:103020009046994600BFDFF864B09BF80000532833
:1030300001D000F023FB00BFDFF850A0032D1FD20A
:10304000EFF311810846202181F3118800BF00BFF2
:1030500005EB45020AF1600101EBC2043DB12760B6
:10306000C4F80480C4F8089000212161E1600A9945
:103070006161C1B281F3118800BF00BF002601E089
:103080004FF0FF363046BDE8F09F00006C05002091
:103090002DE9F05F05460F469046994600BFDFF8E0
:1030A00064B09BF80000532801D000F0E7FA00BF9D
:1030B000DFF850A0032D1FD2EFF311810846202125
:1030C00081F3118800BF00BF05EB45020AF118012A
:1030D00001EBC2043DB12760C4F80480C4F8089035
:1030E00000212161E1600A996161C1B281F3118817
:1030F00000BF00BF002601E04FF0FF363046BDE8BC
:10310000F09F00006C0500202DE9F04104460D46BB
:10311000164600BF0E4F3878532801D000F0AEFAA3
:1031200000BFEFF311800746202080F3118800BF15
:1031300000BF32462946204600F00CF88046F8B21F
:1031400080F3118800BF00BF4046BDE8F081000059
:103150006C0500202DE9F047074688461646C24612
:1031600007EB47011B4800EBC109D9F8140020B157
:10317000012811D0022826D11EE0484600F0B6FAF8
:103180000546B54201D2002405E034463246514698
:10319000484600F0F4FA18E0484600F0A7FA054661
:1031A000B54201D2284600E0304604462246514648
:1031B000484600F0E4FA08E032465146484600F03E
:1031C000A3FA044601E0002400BF00BF2046BDE88A
:1031D000F087000084050020704710B5FFF736F82F
:1031E00010BD00000348006840F470000149086009
:1031F0007047000088ED00E070B50546AC6B00201C
:10320000E085E0842046FFF77EFC70BD00BF00BF74
:1032100002680C3252E8002F22F4907102680C32DE
:1032200042E80013002BF3D100BF00BF00BF0268CB
:10323000143252E8002F22F001010268143242E8F1
:103240000013002BF3D100BF016B01290ED100BF89
:1032500000BF02680C3252E8002F22F01001026811
:103260000C3242E80013002BF3D100BF202180F87C
:103270003E1000210163704710B504462068C06805
:1032800020F040002168C860202084F83D002046DE
:10329000FFF7BAFE002010BDF8B5044694F83E00D2
:1032A000222873D1A068B0F5805F0CD1206950B995
:1032B0000025A66A20684068C0F308003080A06A34
:1032C000801CA06215E0A56A0026A068B0F5805FAA
:1032D00003D0A06828B9206918B920684068287010
:1032E00004E02068406800F07F002870A06A401C5D
:1032F000A062E08D401E80B2E085002844D12068A5
:10330000C06820F020002168C8602068C06820F4F0
:1033100080702168C8602068406920F00100216841
:103320004861202084F83E00206B012826D100202F
:10333000206300BF00BF21680C3151E8001F21F05D
:10334000100021680C3141E80002002AF3D100BFCF
:103350002068006800F0100010280AD100BF00208B
:10336000009020680068009020684068009000BFCE
:1033700000BFA18D2046FFF7C5FB02E02046FFF706
:10338000F5FD0020F8BD01E00020FBE70220F9E791
:103390002DE9F84F04462068006920F44050E168A8
:1033A0000843216808612169A068084361690843EE
:1033B000E169084300902068C06849F20C618843C5
:1033C000009908432168C8602068406920F4407073
:1033D000A16908432168486176492068884203D082
:1033E00075492068884203D1FFF7BCF8814602E0A6
:1033F000FFF7A8F88146E069B0F5004F6CD10220D4
:103400006168A0FB015003461920A9FB007001462A
:103410002A463846FCF77FFF6421B0FBF1F04FEA03
:10342000001A02206168A0FB01510B461920A9FB7C
:1034300000712A463846FCF76EFF83460220616819
:10344000A0FB015003461920A9FB00712A4638460B
:10345000FCF761FF6421B0FBF1F000EBC00101EB70
:103460000010ABEB8000322101EBC0006421B0FB07
:10347000F1F000F0F8000AEB400A02206168A0FBBE
:10348000015003461920A9FB007001462A46384620
:10349000FCF741FF834602206168A0FB0150034610
:1034A0001920A9FB00712A463846FCF734FF642135
:1034B000B0FBF1F000EBC00101EB0010ABEB8000C2
:1034C000322101EBC0006421B0FBF1F000F00700F5
:1034D0005044216888606AE004206168A0FB0150C4
:1034E00003461920A9FB007001462A463846FCF71E
:1034F00012FF824604206168A0FB01500346192098
:10350000A9FB007001462A463846FCF704FF6421F7
:10351000B0FBF1F000EBC00101EB0010AAEB800062
:10352000322101EB00106421B0FBF1F000F0F00A51
:1035300004206168A0FB017003461920A9FB00511B
:103540003A462846FCF7E7FE6421B0FBF1F00AEBAF
:10355000001A04206168A0FB01510B461920A9FB49
:1035600000712A463846FCF7D6FE8346042061687F
:10357000A0FB015003461920A9FB007001462A4612
:103580003846FCF7C8FE6421B0FBF1F000EBC00147
:1035900001EB0010ABEB8000322101EB0010642145
:1035A000B0FBF1F000F00F00504421688860BDE8E6
:1035B000F88F0000001001400014014010B50346D0
:1035C00099629A85DA8500201864222083F83E00EB
:1035D00000BF002083F83C0000BF186928B11868BC
:1035E000C06840F480701C68E0601868406940F072
:1035F00001001C6860611868C06840F020001C6809
:10360000E060002010BD014691F83D00212828D13E
:103610008868B0F5805F0BD1086948B90A6A1088DC
:10362000C0F308000B685860086A801C086205E057
:103630000B6A581C086218780B685860C88C401ECA
:1036400080B2C88458B90868C06820F080000B6850
:10365000D8600868C06840F040000B68D86000205F
:1036600070470220FCE7000010B50248FFF74CFA53
:1036700010BD00002805002000BFFEE770B5144C07
:10368000A8212046FDF779F903202061606111A08F
:10369000A0611349E1614FF4806121620021A162C0
:1036A0006162E1620BA020660E4961661021A1668D
:1036B00000212167E1666167002505E0C5F10F0083
:1036C0000949085C60556D1C102DF7D370BD0000D2
:1036D0006C0500205465726D696E616C000000001D
:1036E00014060020140A00200B49000810B50146FA
:1036F0000A69CB689A4204D88C68641EE41AA01840
:1037000001E0D41A601E10BD2DE9F05F0446894621
:1037100017464FF0000AE56800BFD4F81080A845AE
:1037200003D9A8EB0500461E04E0A5EB0800401CE9
:10373000A1680E1AA068401BB04201D9304601E0D2
:10374000A068401B0646BE4201D2304600E0384623
:103750000646606800EB050B324649465846FDF7C1
:103760009DF8B244B144BF1B3544A068A84200D1C3
:103770000025E560002FD0D15046BDE8F09F2DE92F
:10378000F047044689461546E668A068871BAF42A5
:103790000AD9606800EB060A2A4649465046FDF7FA
:1037A0007DF87019E06014E0B846606800EB060A26
:1037B000424649465046FDF771F8A5EB0708D4F894
:1037C00004A009EB070142465046FDF767F8C4F82C
:1037D0000C80BDE8F08703B401984100009850EADE
:1037E000C12018BF04204A0D18BF40F0010040F26C
:1037F000FF72B2EB515F08BF40F00200012808BF22
:10380000052002B07047000002480068C0F30220A3
:10381000704700000CED00E010B5002804DB0A073B
:10382000130E054A135406E00A07140E034A00F06B
:103830000F031B1FD45410BD00E400E018ED00E09E
:1038400030380A2801D2012070470020704700BF9D
:103850007047000001490860704700000400002024
:1038600010B504464FF47A7104FB01F000F002F841
:1038700010BD000070B5034600224FF0E0267569C8
:103880000D4E366803FB06F44FF0E026B16910E0F8
:103890004FF0E026B06988420BD0884202D20E1A5F
:1038A000324402E02E1A0E4432440146A24200D3B2
:1038B00000E0EDE700BF70BD0400002070B586B0E9
:1038C0000546002D1CD126480068002811D14FF470
:1038D000F070244924A229A3CDE90310CDE90132D7
:1038E00000900B462EA235A1002000F095F800BFF5
:1038F000FEE74FF4F0721B491BA0194B1B68984759
:10390000002405262F4890F8F00010B9304606B084
:1039100070BD00F083FA00241BE004EB4411294839
:103920003130084490F82000012810D104EB4412F3
:10393000244831301044411C1E222846FCF763FF06
:1039400028B904EB44111F483130465C03E0601C89
:10395000C4B2052CE1DB00BF00F094FA3046D6E794
:103960004C000020AE49000874616720213D2028EA
:1039700028766F6964202A293029000028257329B8
:103980002068617320617373657274206661696C6D
:1039900065642061742025733A256C642E00000054
:1039A0002E2E5C2E2E5C656173796C6F6767657275
:1039B0005C7372635C656C6F672E6300656C6F6728
:1039C00000000000240A002010B50024114890F8DF
:1039D000F000012801D1204610BD00F0B1FA0446E4
:1039E0000CB12046F8E7012000F02CFA002009492C
:1039F00081F8F30081F8F400012000F0F5FB0520C8
:103A000000F0AEFA00F00AFB0120024981F8F00054
:103A10002046E1E7240A00200FB42DE9F04F8DB0D5
:103A200005460F469846DDF868903846FCF7CCFE10
:103A3000824600244FF0020B00200B900C90079060
:103A4000089009900A90052D1CDDCA4800680028DE
:103A500011D140F23E20C849C8A2CFA3CDE903103E
:103A6000CDE9013200900B46D4A2DBA10020FFF784
:103A7000D3FF00BFFEE740F23E22BF49BFA0BD4BCF
:103A80001B689847D64890F8F10020B90DB0BDE802
:103A9000F00F5DF814FBD2480078A84204DB3846EA
:103AA000FFF70CFFA84200DAF0E7CD49491C384681
:103AB000FCF778FE00B9E9E71CA8069000F0AEF923
:103AC000C74890F8F50078B1C6480119C6A220464B
:103AD00000F038FC0444C54850F82520C1480119BD
:103AE000204600F02FFC04440121284600F0AAFCE7
:103AF00040B1BF4850F82520BA480119204600F0CF
:103B000021FC04440221284600F09CFCE8B1B548A1
:103B100001193A46204600F015FC0444BAF10F0F93
:103B20000CD8CAF10F01202207A8FCF7FCFEAD4813
:103B3000011907AA204600F005FC0444A948011910
:103B4000ACA2204600F0FEFB04441C21284600F0F5
:103B500079FC002852D0A3480119A7A2204600F002
:103B6000F1FB04440421284600F06CFCA8B100F0ED
:103B7000ABF905909B4801192046059A00F0E2FB3D
:103B800004441821284600F05DFC30B19548011925
:103B900098A2204600F0D6FB04440821284600F0F5
:103BA00051FCA8B100F082F905908E480119204619
:103BB000059A00F0C7FB04441021284600F042FC9F
:103BC00030B1884801198BA2204600F0BBFB0444A9
:103BD0001021284600F036FC48B100F06FF905903E
:103BE000804801192046059A00F0ACFB04447D484A
:103BF000011982A2204600F0A5FB0444202128469A
:103C0000189A00F085FC60B942464021284600F031
:103C10007FFC30B94A468021284600F087FC002806
:103C200062D07048011976A2204600F08BFB044454
:103C300020212846189A00F06BFC08B36948011946
:103C40002046189A00F07EFB044442464021284654
:103C500000F05EFC38B1634801196AA2204600F00A
:103C600071FB04440CE04A468021284600F05EFCCB
:103C700030B15C4801195FA2204600F063FB0444A8
:103C80004A468021284600F051FCC8B14B465EA24E
:103C900005210BA8FCF7D0FB524801190BAA2046BE
:103CA00000F050FB044442464021284600F030FC1E
:103CB00030B14C4801194FA2204600F043FB0444A8
:103CC00042464021284600F023FC30B14548011906
:103CD0004246204600F036FB0444424801194BA2FC
:103CE000204600F02FFB0444C4F180013D4A101926
:103CF000069B1B9AFCF786FB064600200690A0193F
:103D0000802803D8002E01DB344400E08024201DED
:103D10005844802803D98024241FA4EB0B04304886
:103D200090F8200058B100202E4908552C49203128
:103D30002C48FCF737FD10B900F0A4F8A6E6284897
:103D400090F8F50030B12748011931A2204600F063
:103D5000F9FA0444234801192FA2204600F0F2FA90
:103D6000044421461F4800F0EDF800F08BF800BF36
:103D70008CE600004C000020C64900086C657665A2
:103D80006C203C3D20454C4F475F4C564C5F5645A0
:103D900052424F5345000000282573292068617363
:103DA00020617373657274206661696C656420615B
:103DB000742025733A256C642E0000002E2E5C2E94
:103DC0002E5C656173796C6F676765725C73726393
:103DD0005C656C6F672E6300656C6F6700000000A8
:103DE000240A00201C0B00201B5B00003400002074
:103DF0001C000020200000005B0000005D2000008F
:103E0000280000003A000000256C64002900000032
:103E10001B5B306D000000000D0A000010B5084863
:103E200090F8F20030B100F096F80120044981F8D2
:103E3000F40003E00120024981F8F30010BD000006
:103E4000240A002010B504460D4880F8F24090F88E
:103E5000F200A0B10A4890F8F40030B9084890F890
:103E6000F30010B100F077F809E0054890F8F4008D
:103E700028B1034890F8F30008B900F06EF810BDBF
:103E8000240A002010B5084890F8F20030B100F084
:103E900064F80020044981F8F40003E0002002499E
:103EA00081F8F30010BD0000240A002000A0704734
:103EB0007069643A313030380000000000A070476B
:103EC0007469643A323400002DE9FE43FEF7B8F914
:103ED00004464FF47A70B4FBF0F100FB1148B4FBD8
:103EE000F0F03C21B0FBF1F201FB12054EF6602030
:103EF000B4FBF0F0B0FBF1F201FB12070948B4FB90
:103F0000F0F01821B0FBF1F201FB1206334606A2D5
:103F100010210A48CDE901580097FCF78DFA0748AF
:103F2000BDE8FE8380EE3600253032643A2530321B
:103F3000643A253032643A25303364009C0B00200B
:103F40000020704770B504460D462A4621460020E1
:103F5000FFF7DAF870BD72B6704762B670470000BE
:103F600010B586B00446052C1CDD104800680028FA
:103F700011D14FF4AD700E490EA215A3CDE9031077
:103F8000CDE9013200900B461AA221A10020FFF7D3
:103F900043FD00BFFEE74FF4AD72054905A0034B9A
:103FA0001B6898471C48047006B010BD4C000020E8
:103FB000824900086C6576656C203C3D20454C4F7D
:103FC000475F4C564C5F564552424F5345000000E8
:103FD00028257329206861732061737365727420CA
:103FE0006661696C65642061742025733A256C6490
:103FF0002E0000002E2E5C2E2E5C656173796C6F96
:10400000676765725C7372635C656C6F672E6300D3
:10401000656C6F6700000000240A002010B50024C2
:1040200000BF13E004EB44120A491144481C1F214D
:10403000FCF781FC002104EB44120648815404EB98
:104040004412104480F82010601CC4B2052CE9DB37
:1040500010BD0000550A002030B585B004460D465D
:10406000052C1CDD10480068002811D14FF4A07009
:104070000E490FA215A3CDE90310CDE9013200903E
:104080000B461BA221A10020FFF7C6FC00BFFEE7E4
:104090004FF4A072054906A0034B1B6898471D48C2
:1040A00040F8245005B030BD4C00002065490008A0
:1040B0006C6576656C203C3D20454C4F475F4C5607
:1040C0004C5F564552424F53450000002825732946
:1040D0002068617320617373657274206661696C16
:1040E00065642061742025733A256C642E000000FD
:1040F0002E2E5C2E2E5C656173796C6F676765721E
:104100005C7372635C656C6F672E6300656C6F67D0
:1041100000000000FC0A002010B586B00446002C08
:104120001ED0012C1CD011480068002811D140F28B
:1041300015100F490FA219A3CDE90310CDE90132E3
:1041400000900B461EA225A10020FFF765FC00BFD2
:10415000FEE740F21512064906A0044B1B6898477B
:10416000204880F8F14006B010BD00004C0000204F
:104170003149000828656E61626C6564203D3D2010
:1041800066616C736529207C7C2028656E61626C99
:104190006564203D3D2074727565290028257329CA
:1041A0002068617320617373657274206661696C45
:1041B00065642061742025733A256C642E0000002C
:1041C0002E2E5C2E2E5C656173796C6F676765724D
:1041D0005C7372635C656C6F672E6300656C6F6700
:1041E00000000000240A002010B586B00446002C10
:1041F0001ED0012C1CD011480068002811D140F2BB
:1042000021100F490FA219A3CDE90310CDE9013206
:1042100000900B461EA225A10020FFF7FDFB00BF6A
:10422000FEE740F22112064906A0044B1B6898479E
:10423000204880F8F54006B010BD00004C0000207A
:104240004949000828656E61626C6564203D3D2027
:1042500066616C736529207C7C2028656E61626CC8
:104260006564203D3D2074727565290028257329F9
:104270002068617320617373657274206661696C74
:1042800065642061742025733A256C642E0000005B
:104290002E2E5C2E2E5C656173796C6F676765727C
:1042A0005C7372635C656C6F672E6300656C6F672F
:1042B00000000000240A00200EB50B4890F8F00022
:1042C00000B90EBD0120FFF727FF08A009A1F622C3
:1042D000124BCDE90021029011A218A10320FFF793
:1042E0009BFB00BFEDE70000240A0020322E322E97
:1042F00039390000456173794C6F676765722056E4
:10430000257320697320696E697469616C697A65C7
:1043100020737563636573732E0000001C490008E9
:104320002E2E5C2E2E5C656173796C6F67676572EB
:104330005C7372635C656C6F672E6300656C6F679E
:1043400000000000F0B585B006460D46144627462D
:10435000002D19D12348006880B92C20224923A2BE
:1043600023A3CDE90310CDE9013200900B4629A229
:1043700031A10020FFF750FB00BFFEE72C221A49B5
:104380001AA0184B1B689847002C19D115480068D3
:1043900080B92D2014492AA215A3CDE90310CDE937
:1043A000013200900B461BA223A10020FFF734FB33
:1043B00000BFFEE72D220C4921A00A4B1B6898473D
:1043C00009E03046761C802804D214F8010B05F869
:1043D000010B00E002E020780028F2D100BFE01BD2
:1043E00005B0F0BD4C000020FE4900086473740065
:1043F00028257329206861732061737365727420A6
:104400006661696C65642061742025733A256C646B
:104410002E0000002E2E5C2E2E5C656173796C6F71
:10442000676765725C7372635C656C6F675F7574F8
:10443000696C732E63000000656C6F6700000000FC
:104440007372630030B585B004460D46052C1CDD43
:1044500013480068002811D140F2DF20114912A250
:1044600018A3CDE90310CDE9013200900B461EA23E
:1044700024A10020FFF7D0FA00BFFEE740F2DF22C0
:10448000084909A0064B1B689847204850F82400AB
:10449000284010B1012005B030BD0020FBE700002E
:1044A0004C000020D24900086C6576656C203C3DCC
:1044B00020454C4F475F4C564C5F564552424F5338
:1044C00045000000282573292068617320617373FB
:1044D000657274206661696C65642061742025735F
:1044E0003A256C642E0000002E2E5C2E2E5C656139
:1044F00073796C6F676765725C7372635C656C6F10
:10450000672E6300656C6F6700000000FC0A0020E6
:1045100070B505460E46144634B131462846FFF7BD
:1045200091FF08B1012070BD0020FCE770B5054681
:104530000E46144634B131462846FFF783FF08B1D2
:10454000012070BD0020FCE700B587B0142102A84F
:10455000FCF713FA00BF00BF002001902348006859
:1045600040F02000214908600846006800F0200063
:10457000019000BF00BF00BF00BF00BF002001903E
:104580000846006840F0200008600846006800F017
:104590002000019000BF00BF00BF4815029001201D
:1045A0000390022004900020059002A91048FDF716
:1045B00041FD4FF48060029001200390022004909E
:1045C0000020059002A90A48FDF734FD00BF012232
:1045D00051020748FDF728FE00BF00BF01229102EB
:1045E0000348FDF721FE00BF07B000BD3038024090
:1045F000001402401CB5FDF735FE072302220821F6
:104600004FF4A87000F0ACF8A820FFF723F94FF49E
:10461000E13000F013F9FFF797FFFFF7D5F9072115
:104620000020FFF719FD07210120FFF715FD0721E5
:104630000220FFF711FD07210320FFF70DFD0721E1
:104640000420FFF709FD07210520FFF705FDFFF70F
:1046500033FE00204FF480632E4A2FA10090FEF716
:1046600017FD002010232F4A2BA10090FEF7D4FC49
:104670004EE000BF00224FF400712B48FDF7D4FD3F
:1046800000BF00BF012291022748FDF7CDFD00BF0A
:1046900026A03E212A4B2BA2CDE900102EA10520F9
:1046A000FFF7BAF921A03F21254B26A2CDE9001042
:1046B00029A10420FFF7B0F91CA04021204B21A222
:1046C000CDE9001024A10320FFF7A6F917A041218E
:1046D0001B4B1CA2CDE900101FA10220FFF79CF983
:1046E00012A04221164B17A2CDE900101AA10120F9
:1046F000FFF792F90DA04321114B12A2CDE9001052
:1047000015A10020FFF788F94FF4FA70FFF7A8F819
:10471000AFE70000500000205465726D696E616C57
:1047200000000000500400200014024048656C6C3A
:104730006F20456173794C6F6767657221000000D7
:10474000DE4800082E2E5C2E2E5C557365725C6D63
:1047500061696E2E630000006D61696E00000000EB
:104760002DE9F04192B080460C4615461E460027C2
:10477000302106A8FCF701F9142101A8FCF7FDF887
:1047800000BF002000902A48006840F0805028496F
:1047900008600846006800F08050009000BF00BF2D
:1047A00000BF002000902348006840F48040214969
:1047B00008600846006800F48040009000BF00BF19
:1047C000012006900004079002200C9041050D91F5
:1047D000CDF83C800E941095119606A8FDF72AFF9F
:1047E00007461FB1012012B0BDE8F0810F200190F3
:1047F00002200290002003904FF4A05004904FF448
:1048000080500590052101A8FDF7D4FD07460FB1A2
:104810000120E8E7FDF70EFD41F20101884205D1D4
:104820000548006840F48070034908600020DAE71A
:104830004038024000700040003C024010B5044681
:1048400009480A4908600846446000218160C16047
:10485000016181610C214161FEF7C6FA0122044920
:104860000248FEF761FB10BD001001402805002042
:104870000E00002010B500290AD00878002807D0C3
:1048800005487844FCF760FF002801D0002010BDE7
:104890000248784410BD000006030000FE0200003C
:1048A00010B500290AD00878002807D005487844B8
:1048B000FCF74AFF002801D0002010BD02487844D0
:1048C00010BD0000F6020000EE0200004FF0407044
:1048D000E1EE100A7047FCF75BBBFCF78FBC6D6123
:1048E000696E0000000000000000000102030406E1
:1048F000070809000000000102030430313233349C
:1049000035363738394142434445460000000000FF
:10491000005454522052454747455300656C6F6719
:104920005F737461727400656C6F675F73746F702E
:1049300000656C6F675F7365745F6F757470757415
:104940005F656E61626C656400656C6F675F73655F
:10495000745F746578745F636F6C6F725F656E61AE
:10496000626C656400656C6F675F7365745F666D2C
:104970007400656C6F675F7365745F66696C7465FE
:104980007200656C6F675F7365745F66696C7465F0
:10499000725F6C766C00656C6F675F7365745F66E1
:1049A000696C7465725F7461675F6C766C00656CCE
:1049B0006F675F6765745F66696C7465725F746169
:1049C000675F6C766C00656C6F675F6F7574707590
:1049D00074006765745F666D745F656E61626C65B7
:1049E0006400656C6F675F66696E645F6C766C000F
:1049F000656C6F675F66696E645F74616700656CA4
:104A00006F675F73747263707900656C6F675F6363
:104A100070796C6E00656C6F675F6D656D63707942
:104A2000003031323334353637383941424344452A
:104A300046403058003031323334353637383961FA
:104A4000626364656640307800040000080000007E
:104A50000000000002000100001000000000000043
:104A60000000000030313233343536373839616276
:104A700063646566787000303132333435363738E8
:104A8000394142434445465850000000024000006E
:104A9000000000A00000000005400000000000C869
:104AA000000000000C4000000000409C00000000DE
:104AB000194000000020BCBE00000000344000008F
:104AC000BFC91B8E00000004B5400000504BCFD082
:104AD0006607E2CF010000006C4100003E8251AA4F
:104AE000DFEEA73401000000D9420000DCB5A0E2EF
:104AF0003A301F97FFFFFFFFB4450000FD25A0C817
:104B0000E9A3C14FFFFFFFFFFF3F0000000000804F
:104B100000000000FF3F00000000008000000000D7
:104B2000412F0000442F0000452F0000492F0000B6
:104B3000562F0000572F000033313B32326D0000FA
:104B400033323B32326D000033333B32326D000082
:104B500033343B32326D000033353B32326D00006E
:104B600033363B32326D0000B44C000800000020A8
:104B700050000000C4010008044D0008500000204F
:104B8000C0110000E00100081C000000430000000C
:104B9000F8FFFFFF0C0000000E0000000F000000F7
:104BA0002E0000001001000043000000F8FFFFFF8E
:104BB0000040404040404040404041414141414030
:104BC00040404040404040404040404040404040E5
:104BD0004005020202020202020202020202020274
:104BE0000220202020202020202020020202020279
:104BF00002029090909090901010101010101010D1
:104C000010101010101010101010101002020202DC
:104C10000202888888888888080808080808080820
:104C2000080808080808080808080808020202021C
:104C30004000000000000000000000000000000034
:104C40000000000000000000000000000000000064
:104C50000000000000000000000000000000000054
:104C60000000000000000000000000000000000044
:104C70000000000000000000000000000000000034
:104C80000000000000000000000000000000000024
:104C90000000000000000000000000000000000014
:104CA0000000000000000000000000000000000004
:104CB000000000000024F4000000000000000000DC
:104CC00000000000000000001000000001000000D3
:104CD000204B0008284B0008344B00082C4B0008E0
:104CE000244B0008304B0008584B0008384B000894
:104CF000484B0008604B0008404B0008504B000830
:044D000000000000AF
:040000050800018965
:00000001FF
